{"abi":[{"type":"constructor","inputs":[{"name":"_usdc","type":"address","internalType":"address"},{"name":"_riskManager","type":"address","internalType":"address"},{"name":"_positionManager","type":"address","internalType":"address"},{"name":"_treasuryManager","type":"address","internalType":"address"},{"name":"_backendSigner","type":"address","internalType":"address"}],"stateMutability":"nonpayable"},{"type":"function","name":"BACKEND_SIGNER_ROLE","inputs":[],"outputs":[{"name":"","type":"bytes32","internalType":"bytes32"}],"stateMutability":"view"},{"type":"function","name":"DEFAULT_ADMIN_ROLE","inputs":[],"outputs":[{"name":"","type":"bytes32","internalType":"bytes32"}],"stateMutability":"view"},{"type":"function","name":"KEEPER_ROLE","inputs":[],"outputs":[{"name":"","type":"bytes32","internalType":"bytes32"}],"stateMutability":"view"},{"type":"function","name":"MAX_SESSION_DURATION","inputs":[],"outputs":[{"name":"","type":"uint256","internalType":"uint256"}],"stateMutability":"view"},{"type":"function","name":"PRICE_VALIDITY_WINDOW","inputs":[],"outputs":[{"name":"","type":"uint256","internalType":"uint256"}],"stateMutability":"view"},{"type":"function","name":"authorizeSessionKey","inputs":[{"name":"sessionKeyAddress","type":"address","internalType":"address"},{"name":"duration","type":"uint256","internalType":"uint256"},{"name":"authSignature","type":"bytes","internalType":"bytes"}],"outputs":[],"stateMutability":"nonpayable"},{"type":"function","name":"executeTapToTrade","inputs":[{"name":"trader","type":"address","internalType":"address"},{"name":"symbol","type":"string","internalType":"string"},{"name":"isLong","type":"bool","internalType":"bool"},{"name":"collateral","type":"uint256","internalType":"uint256"},{"name":"leverage","type":"uint256","internalType":"uint256"},{"name":"signedPrice","type":"tuple","internalType":"struct TapToTradeExecutor.SignedPrice","components":[{"name":"symbol","type":"string","internalType":"string"},{"name":"price","type":"uint256","internalType":"uint256"},{"name":"timestamp","type":"uint256","internalType":"uint256"},{"name":"signature","type":"bytes","internalType":"bytes"}]},{"name":"userSignature","type":"bytes","internalType":"bytes"}],"outputs":[{"name":"positionId","type":"uint256","internalType":"uint256"}],"stateMutability":"nonpayable"},{"type":"function","name":"getRoleAdmin","inputs":[{"name":"role","type":"bytes32","internalType":"bytes32"}],"outputs":[{"name":"","type":"bytes32","internalType":"bytes32"}],"stateMutability":"view"},{"type":"function","name":"grantRole","inputs":[{"name":"role","type":"bytes32","internalType":"bytes32"},{"name":"account","type":"address","internalType":"address"}],"outputs":[],"stateMutability":"nonpayable"},{"type":"function","name":"hasRole","inputs":[{"name":"role","type":"bytes32","internalType":"bytes32"},{"name":"account","type":"address","internalType":"address"}],"outputs":[{"name":"","type":"bool","internalType":"bool"}],"stateMutability":"view"},{"type":"function","name":"isSessionKeyValid","inputs":[{"name":"trader","type":"address","internalType":"address"},{"name":"sessionKeyAddress","type":"address","internalType":"address"}],"outputs":[{"name":"","type":"bool","internalType":"bool"}],"stateMutability":"view"},{"type":"function","name":"metaNonces","inputs":[{"name":"","type":"address","internalType":"address"}],"outputs":[{"name":"","type":"uint256","internalType":"uint256"}],"stateMutability":"view"},{"type":"function","name":"positionManager","inputs":[],"outputs":[{"name":"","type":"address","internalType":"contract IPositionManager"}],"stateMutability":"view"},{"type":"function","name":"renounceRole","inputs":[{"name":"role","type":"bytes32","internalType":"bytes32"},{"name":"callerConfirmation","type":"address","internalType":"address"}],"outputs":[],"stateMutability":"nonpayable"},{"type":"function","name":"revokeRole","inputs":[{"name":"role","type":"bytes32","internalType":"bytes32"},{"name":"account","type":"address","internalType":"address"}],"outputs":[],"stateMutability":"nonpayable"},{"type":"function","name":"revokeSessionKey","inputs":[{"name":"sessionKeyAddress","type":"address","internalType":"address"}],"outputs":[],"stateMutability":"nonpayable"},{"type":"function","name":"riskManager","inputs":[],"outputs":[{"name":"","type":"address","internalType":"contract IRiskManager"}],"stateMutability":"view"},{"type":"function","name":"sessionKeys","inputs":[{"name":"","type":"address","internalType":"address"},{"name":"","type":"address","internalType":"address"}],"outputs":[{"name":"keyAddress","type":"address","internalType":"address"},{"name":"expiresAt","type":"uint256","internalType":"uint256"},{"name":"isActive","type":"bool","internalType":"bool"}],"stateMutability":"view"},{"type":"function","name":"supportsInterface","inputs":[{"name":"interfaceId","type":"bytes4","internalType":"bytes4"}],"outputs":[{"name":"","type":"bool","internalType":"bool"}],"stateMutability":"view"},{"type":"function","name":"tradingFeeBps","inputs":[],"outputs":[{"name":"","type":"uint256","internalType":"uint256"}],"stateMutability":"view"},{"type":"function","name":"treasuryManager","inputs":[],"outputs":[{"name":"","type":"address","internalType":"contract ITreasuryManager"}],"stateMutability":"view"},{"type":"function","name":"updateFees","inputs":[{"name":"_tradingFeeBps","type":"uint256","internalType":"uint256"}],"outputs":[],"stateMutability":"nonpayable"},{"type":"function","name":"updateRiskManager","inputs":[{"name":"_riskManager","type":"address","internalType":"address"}],"outputs":[],"stateMutability":"nonpayable"},{"type":"function","name":"usdc","inputs":[],"outputs":[{"name":"","type":"address","internalType":"contract IERC20"}],"stateMutability":"view"},{"type":"event","name":"MetaTransactionExecuted","inputs":[{"name":"userAddress","type":"address","indexed":true,"internalType":"address"},{"name":"relayerAddress","type":"address","indexed":true,"internalType":"address"},{"name":"nonce","type":"uint256","indexed":false,"internalType":"uint256"}],"anonymous":false},{"type":"event","name":"RoleAdminChanged","inputs":[{"name":"role","type":"bytes32","indexed":true,"internalType":"bytes32"},{"name":"previousAdminRole","type":"bytes32","indexed":true,"internalType":"bytes32"},{"name":"newAdminRole","type":"bytes32","indexed":true,"internalType":"bytes32"}],"anonymous":false},{"type":"event","name":"RoleGranted","inputs":[{"name":"role","type":"bytes32","indexed":true,"internalType":"bytes32"},{"name":"account","type":"address","indexed":true,"internalType":"address"},{"name":"sender","type":"address","indexed":true,"internalType":"address"}],"anonymous":false},{"type":"event","name":"RoleRevoked","inputs":[{"name":"role","type":"bytes32","indexed":true,"internalType":"bytes32"},{"name":"account","type":"address","indexed":true,"internalType":"address"},{"name":"sender","type":"address","indexed":true,"internalType":"address"}],"anonymous":false},{"type":"event","name":"SessionKeyAuthorized","inputs":[{"name":"trader","type":"address","indexed":true,"internalType":"address"},{"name":"sessionKey","type":"address","indexed":true,"internalType":"address"},{"name":"expiresAt","type":"uint256","indexed":false,"internalType":"uint256"}],"anonymous":false},{"type":"event","name":"SessionKeyRevoked","inputs":[{"name":"trader","type":"address","indexed":true,"internalType":"address"},{"name":"sessionKey","type":"address","indexed":true,"internalType":"address"}],"anonymous":false},{"type":"event","name":"TapToTradeOrderExecuted","inputs":[{"name":"positionId","type":"uint256","indexed":true,"internalType":"uint256"},{"name":"trader","type":"address","indexed":true,"internalType":"address"},{"name":"symbol","type":"string","indexed":false,"internalType":"string"},{"name":"isLong","type":"bool","indexed":false,"internalType":"bool"},{"name":"collateral","type":"uint256","indexed":false,"internalType":"uint256"},{"name":"leverage","type":"uint256","indexed":false,"internalType":"uint256"},{"name":"price","type":"uint256","indexed":false,"internalType":"uint256"},{"name":"signer","type":"address","indexed":true,"internalType":"address"}],"anonymous":false},{"type":"error","name":"AccessControlBadConfirmation","inputs":[]},{"type":"error","name":"AccessControlUnauthorizedAccount","inputs":[{"name":"account","type":"address","internalType":"address"},{"name":"neededRole","type":"bytes32","internalType":"bytes32"}]},{"type":"error","name":"ECDSAInvalidSignature","inputs":[]},{"type":"error","name":"ECDSAInvalidSignatureLength","inputs":[{"name":"length","type":"uint256","internalType":"uint256"}]},{"type":"error","name":"ECDSAInvalidSignatureS","inputs":[{"name":"s","type":"bytes32","internalType":"bytes32"}]},{"type":"error","name":"ReentrancyGuardReentrantCall","inputs":[]}],"bytecode":{"object":"0x60a034620002cd57601f62001b7c38819003918201601f1916830191906001600160401b03831184841017620002d2578160a09285926040958652833981010312620002cd576200005082620002e8565b9160209262000061848301620002e8565b916200006f848201620002e8565b906200008c60806200008460608401620002e8565b9201620002e8565b6001805560058055936001600160a01b039384169081156200028b57841692831562000237578416918215620001df578416938415620001875785161562000138576200011995965060805260018060a01b03199182600254161760025581600354161760035560045416176004556200010633620002fd565b5062000112816200037d565b506200041f565b505161169f9081620004bd82396080518181816108b30152610d940152f35b855162461bcd60e51b815260048101889052602260248201527f546170546f54726164654578656375746f723a20496e76616c6964207369676e60448201526132b960f11b6064820152608490fd5b865162461bcd60e51b815260048101899052602b60248201527f546170546f54726164654578656375746f723a20496e76616c6964205472656160448201526a39bab93ca6b0b730b3b2b960a91b6064820152608490fd5b865162461bcd60e51b815260048101899052602b60248201527f546170546f54726164654578656375746f723a20496e76616c696420506f736960448201526a3a34b7b726b0b730b3b2b960a91b6064820152608490fd5b865162461bcd60e51b815260048101899052602760248201527f546170546f54726164654578656375746f723a20496e76616c6964205269736b60448201526626b0b730b3b2b960c91b6064820152608490fd5b60648888519062461bcd60e51b825280600483015260248201527f546170546f54726164654578656375746f723a20496e76616c696420555344436044820152fd5b600080fd5b634e487b7160e01b600052604160045260246000fd5b51906001600160a01b0382168203620002cd57565b6001600160a01b031660008181527fad3228b676f7d3cd4284a5443f17f1962b36e491b30a40b2405849e597ba5fb5602052604081205490919060ff166200037957818052816020526040822081835260205260408220600160ff19825416179055339160008051602062001b5c8339815191528180a4600190565b5090565b6001600160a01b031660008181527f92731b430a99d226833495b5b5a9eee62a15e2a9df1b0a790bc8afce8b03780660205260408120549091907f9c6721068556a3c372f1c2ef739a54f29e29d287d6ef1e7b26a65200f38e6fb09060ff166200041a57808352826020526040832082845260205260408320600160ff1982541617905560008051602062001b5c833981519152339380a4600190565b505090565b6001600160a01b031660008181527f0363fc6b1c9d3a5e0ab0c2ddc08deb0f30108829db06e84f370d2858ffe78c4660205260408120549091907ffc8737ab85eb45125971625a9ebdb75cc78e01d5c1fa80c4c6e5203f47bc4fab9060ff166200041a57808352826020526040832082845260205260408320600160ff1982541617905560008051602062001b5c833981519152339380a460019056fe608080604052600436101561001357600080fd5b60003560e01c90816301ffc9a7146111af575080631e6c63fe146109fb578063248a9ca3146109cc5780632f2ff15d1461098d578063364bc15a1461095257806336568abe1461090b5780633cea70d9146108e25780633e413bee1461089d578063478426631461087457806351d9f3ec146107db57806378dacee11461076e578063791b98bc1461074557806381e9c8d11461070f57806384f4fc6a1461062457806391d14854146105d7578063924cca9a146105b957806396ade1f91461054a578063a217fddf1461052e578063b54496b014610511578063b81d90fc146101ff578063cd8cd4ad146101e2578063d547741f146101a1578063d97ef2b3146101665763ef7994651461012757600080fd5b34610161576020366003190112610161576001600160a01b03610148611202565b1660005260066020526020604060002054604051908152f35b600080fd5b346101615760003660031901126101615760206040517f9c6721068556a3c372f1c2ef739a54f29e29d287d6ef1e7b26a65200f38e6fb08152f35b34610161576040366003190112610161576101e06004356101c0611218565b908060005260006020526101db600160406000200154611296565b61133a565b005b34610161576000366003190112610161576020604051611c208152f35b3461016157606036600319011261016157610218611202565b60249081359067ffffffffffffffff906044358281116101615761024090369060040161122e565b92909160018060a01b03918282169586156104bd57801515806104b1575b156104605742019485421161044b57604051916020958684019475020baba3437b934bd329039b2b9b9b4b7b71035b2bc960551b86526001600160601b03199060601b1660368501527f20666f7220546574687261205461702d746f2d547261646520756e74696c2000604a8501528760698501526069845260a0840191848310908311176104365761033c946103339461032d936040525190207f19457468657265756d205369676e6564204d6573736167653a0a333200000000600052601c52603c600020923691611403565b9061144a565b90929192611516565b81339116036103d657907fbe3b303cdddf6e290620263440af91da6a4d135c2a3ceb1673323b777cea9320916002604051610376816113af565b8681528381018681526040820193600185523360005260078652604060002089600052865260406000209251166001600160601b0360a01b835416178255516001820155019051151560ff801983541691161790556040519283523392a3005b60405162461bcd60e51b8152600481018390526033818701527f546170546f54726164654578656375746f723a20496e76616c696420617574686044820152726f72697a6174696f6e207369676e617475726560681b6064820152608490fd5b89634e487b7160e01b60005260416004526000fd5b87634e487b7160e01b60005260116004526000fd5b60405162461bcd60e51b8152602060048201528089018990527f546170546f54726164654578656375746f723a20496e76616c696420647572616044820152633a34b7b760e11b6064820152608490fd5b50611c2081111561025e565b60405162461bcd60e51b8152602060048201526027818a01527f546170546f54726164654578656375746f723a20496e76616c69642073657373604482015266696f6e206b657960c81b6064820152608490fd5b3461016157600036600319011261016157602060405161012c8152f35b3461016157600036600319011261016157602060405160008152f35b34610161576040366003190112610161576060610565611202565b61056d611218565b60018060a01b03809216600052600760205281604060002091166000526020526040600020908154169060ff600260018301549201541690604051928352602083015215156040820152f35b34610161576000366003190112610161576020600554604051908152f35b34610161576040366003190112610161576105f0611218565b600435600052600060205260406000209060018060a01b0316600052602052602060ff604060002054166040519015158152f35b34610161576020806003193601126101615761063e611202565b90336000526007815260406000209160018060a01b03169182600052815260ff60026040600020015416156106b85733600052600781526040600020908260005252600260406000200160ff198154169055337f744157ccffbd293a2e8644928cd7d23d650f869b88f72d7bfea8041b76ca6bec600080a3005b6084906040519062461bcd60e51b82526004820152602a60248201527f546170546f54726164654578656375746f723a2053657373696f6e206b6579206044820152696e6f742061637469766560b01b6064820152fd5b3461016157604036600319011261016157602061073b61072d611202565b610735611218565b9061159b565b6040519015158152f35b34610161576000366003190112610161576003546040516001600160a01b039091168152602090f35b346101615760203660031901126101615760043561078a61125c565b6064811161079757600555005b606460405162461bcd60e51b815260206004820152602060248201527f546170546f54726164654578656375746f723a2046656520746f6f20686967686044820152fd5b34610161576020366003190112610161576107f4611202565b6107fc61125c565b6001600160a01b03168015610823576001600160601b0360a01b6002541617600255600080f35b60405162461bcd60e51b815260206004820152602360248201527f546170546f54726164654578656375746f723a20496e76616c6964206164647260448201526265737360e81b6064820152608490fd5b34610161576000366003190112610161576002546040516001600160a01b039091168152602090f35b34610161576000366003190112610161576040517f00000000000000000000000000000000000000000000000000000000000000006001600160a01b03168152602090f35b34610161576000366003190112610161576004546040516001600160a01b039091168152602090f35b3461016157604036600319011261016157610924611218565b336001600160a01b03821603610940576101e09060043561133a565b60405163334bd91960e11b8152600490fd5b346101615760003660031901126101615760206040517ffc8737ab85eb45125971625a9ebdb75cc78e01d5c1fa80c4c6e5203f47bc4fab8152f35b34610161576040366003190112610161576101e06004356109ac611218565b908060005260006020526109c7600160406000200154611296565b6112bc565b346101615760203660031901126101615760043560005260006020526020600160406000200154604051908152f35b346101615760031960e03682011261016157610a15611202565b67ffffffffffffffff9060243582811161016157610a3790369060040161122e565b939092604435918215158303610161578160a435116101615760809060a435360301126101615760c43590811161016157610a7690369060040161122e565b9060026001541461119d5760026001553360009081527f0363fc6b1c9d3a5e0ab0c2ddc08deb0f30108829db06e84f370d2858ffe78c4660205260409020547ffc8737ab85eb45125971625a9ebdb75cc78e01d5c1fa80c4c6e5203f47bc4fab9060ff161561117f5750610ba29161032d6103339260018060a01b038716600052600660205260406000205460405160208101916001600160601b03198a60601b1683528b8b603484013788151560f81b60348d8401015260643560358d8401015260843560558d8401015260758c830101523060601b60958c83010152610b6b60a9828d81010360898101845201826113e1565b5190207f19457468657265756d205369676e6564204d6573736167653a0a333200000000600052601c52603c600020923691611403565b6001600160a01b0381811690841614801561116f575b15611117576001600160a01b038316600090815260066020526040902080546000198114610f2157600101905560a4356044013561012c8101908110610f215742116110c8576060610c4c610c12600460a4350180611636565b9290836040519485926020840137602460a435013560208284010152604460a43501356040828401015281010360408101845201826113e1565b602081519101207f19457468657265756d205369676e6564204d6573736167653a0a333200000000600052601c52610ca3610333603c60002061032d610c9c606460a4350160a435600401611636565b3691611403565b6001600160a01b031660009081527f92731b430a99d226833495b5b5a9eee62a15e2a9df1b0a790bc8afce8b037806602052604090205460ff161561106f57600254604051631a14f6d760e21b81526001600160a01b03858116600483015260a0602483015290916020918391168180610d2160a482018c8c611615565b60843560448301526064356064830152881515608483015203915afa908115610f6b57600091611050575b5015610ff757600480546040516323b872dd60e01b81526001600160a01b038681169382019390935290821660248201526064803560448301529091602091839182906000907f0000000000000000000000000000000000000000000000000000000000000000165af1908115610f6b57600091610fc8575b5015610f775760035460405163c286db6960e01b81526001600160a01b03858116600483015260c0602483015290959160209187911681600081610e0d60c482018d89611615565b891515604483015260643560648301526084356084830152602460a435013560a483015203925af1948515610f6b57600095610f37575b506001600160a01b038416600090815260066020526040902054600019810191908211610f215760405191825260209686937fe38902822f38ae04aa550fdb2ad227e4eb26d897ee03aebfd856262b5a5e0b139333906001600160a01b038916907f03a8e3abe17734f998ec7aacc8db66f8ab07e8096a306018130db6d465f0da74908c90a3610ee160405193849360a0855260a0850191611615565b951515828a01526064356040830152608435606083015260a4356024013560808301526001600160a01b039081169616940390a460018055604051908152f35b634e487b7160e01b600052601160045260246000fd5b9094506020813d602011610f63575b81610f53602093836113e1565b8101031261016157519386610e44565b3d9150610f46565b6040513d6000823e3d90fd5b60405162461bcd60e51b815260206004820152602360248201527f546170546f54726164654578656375746f723a205472616e73666572206661696044820152621b195960ea1b6064820152608490fd5b610fea915060203d602011610ff0575b610fe281836113e1565b8101906115fd565b86610dc5565b503d610fd8565b60405162461bcd60e51b815260206004820152602b60248201527f546170546f54726164654578656375746f723a2054726164652076616c69646160448201526a1d1a5bdb8819985a5b195960aa1b6064820152608490fd5b611069915060203d602011610ff057610fe281836113e1565b86610d4c565b60405162461bcd60e51b815260206004820152602b60248201527f546170546f54726164654578656375746f723a20496e76616c6964207072696360448201526a65207369676e617475726560a81b6064820152608490fd5b60405162461bcd60e51b815260206004820152602160248201527f546170546f54726164654578656375746f723a20507269636520746f6f206f6c6044820152601960fa1b6064820152608490fd5b60405162461bcd60e51b815260206004820152602a60248201527f546170546f54726164654578656375746f723a20496e76616c69642075736572604482015269207369676e617475726560b01b6064820152608490fd5b5061117a818461159b565b610bb8565b6044906040519063e2517d3f60e01b82523360048301526024820152fd5b604051633ee5aeb560e01b8152600490fd5b34610161576020366003190112610161576004359063ffffffff60e01b821680920361016157602091637965db0b60e01b81149081156111f1575b5015158152f35b6301ffc9a760e01b149050836111ea565b600435906001600160a01b038216820361016157565b602435906001600160a01b038216820361016157565b9181601f840112156101615782359167ffffffffffffffff8311610161576020838186019501011161016157565b3360009081527fad3228b676f7d3cd4284a5443f17f1962b36e491b30a40b2405849e597ba5fb5602052604081205460ff161561117f5750565b80600052600060205260406000203360005260205260ff604060002054161561117f5750565b9060009180835282602052604083209160018060a01b03169182845260205260ff6040842054161560001461133557808352826020526040832082845260205260408320600160ff198254161790557f2f8788117e7eff1d82e926ec794901d17c78024a50270940304540a733656f0d339380a4600190565b505090565b9060009180835282602052604083209160018060a01b03169182845260205260ff6040842054166000146113355780835282602052604083208284526020526040832060ff1981541690557ff6391f5c32d9c69d2a47ea670b442974b53935d1edc7fd64eb21e047a839171b339380a4600190565b6060810190811067ffffffffffffffff8211176113cb57604052565b634e487b7160e01b600052604160045260246000fd5b90601f8019910116810190811067ffffffffffffffff8211176113cb57604052565b92919267ffffffffffffffff82116113cb576040519161142d601f8201601f1916602001846113e1565b829481845281830111610161578281602093846000960137010152565b815191906041830361147b5761147492506020820151906060604084015193015160001a90611486565b9192909190565b505060009160029190565b91907f7fffffffffffffffffffffffffffffff5d576e7357a4501ddfe92f46681b20a0841161150a57926020929160ff608095604051948552168484015260408301526060820152600092839182805260015afa156114fe5780516001600160a01b038116156114f557918190565b50809160019190565b604051903d90823e3d90fd5b50505060009160039190565b60048110156115855780611528575050565b600181036115425760405163f645eedf60e01b8152600490fd5b600281036115635760405163fce698f760e01b815260048101839052602490fd5b60031461156d5750565b602490604051906335e2f38360e21b82526004820152fd5b634e487b7160e01b600052602160045260246000fd5b60409160018060a01b0380921660005260076020528183600020911660005260205281600020908251906115ce826113af565b825416815260ff600260018401549384602085015201541615159283910152816115f6575090565b9050421090565b90816020910312610161575180151581036101615790565b908060209392818452848401376000828201840152601f01601f1916010190565b903590601e1981360301821215610161570180359067ffffffffffffffff8211610161576020019181360383136101615756fea2646970667358221220f6e0242aed56fd191b1c7e5c9fa649eb4d9d8e553023e676642d0130f43d4a9f64736f6c634300081400332f8788117e7eff1d82e926ec794901d17c78024a50270940304540a733656f0d","linkReferences":{}},"methodIdentifiers":{"BACKEND_SIGNER_ROLE()":"d97ef2b3","DEFAULT_ADMIN_ROLE()":"a217fddf","KEEPER_ROLE()":"364bc15a","MAX_SESSION_DURATION()":"cd8cd4ad","PRICE_VALIDITY_WINDOW()":"b54496b0","authorizeSessionKey(address,uint256,bytes)":"b81d90fc","executeTapToTrade(address,string,bool,uint256,uint256,(string,uint256,uint256,bytes),bytes)":"1e6c63fe","getRoleAdmin(bytes32)":"248a9ca3","grantRole(bytes32,address)":"2f2ff15d","hasRole(bytes32,address)":"91d14854","isSessionKeyValid(address,address)":"81e9c8d1","metaNonces(address)":"ef799465","positionManager()":"791b98bc","renounceRole(bytes32,address)":"36568abe","revokeRole(bytes32,address)":"d547741f","revokeSessionKey(address)":"84f4fc6a","riskManager()":"47842663","sessionKeys(address,address)":"96ade1f9","supportsInterface(bytes4)":"01ffc9a7","tradingFeeBps()":"924cca9a","treasuryManager()":"3cea70d9","updateFees(uint256)":"78dacee1","updateRiskManager(address)":"51d9f3ec","usdc()":"3e413bee"},"id":59}